:1000000012C02AC029C028C027C026C025C024C0CD
:1000100023C022C021C020C01FC01EC01DC01CC0E4
:100020001BC01AC019C011241FBECFEDCDBF10E0F8
:10003000A0E6B0E0EAEEF6E002C005900D92A2372D
:10004000B107D9F710E0A2E7B0E001C01D92A237D6
:10005000B107E1F739D347C3D3CFDF93CF93CDB700
:10006000DEB7A8E3B0E0E8E3F0E0808188608C933D
:1000700000C0A8E3B0E0E8E3F0E08081877F8C93E4
:10008000CF91DF910895DF93CF9300D00F92CDB73A
:10009000DEB78A836B838B81882341F0A8E3B0E0CD
:1000A000E8E3F0E0808182608C9307C0A8E3B0E0D1
:1000B000E8E3F0E080818D7F8C93A8E3B0E0E8E393
:1000C000F0E080818B7F8C93A7E3B0E0E7E3F0E082
:1000D000808180618C93A7E3B0E0E7E3F0E080816A
:1000E00080628C93A7E3B0E0E7E3F0E08081806476
:1000F0008C93A7E3B0E0E7E3F0E0808180688C9325
:10010000A8E3B0E0E8E3F0E080818F778C93A8E388
:10011000B0E0E8E3F0E080818F7B8C93A8E3B0E06F
:10012000E8E3F0E080818F7D8C93A8E3B0E0E8E322
:10013000F0E080818F7E8C938A8188233CF4A8E351
:10014000B0E0E8E3F0E0808180688C938A81882FBA
:1001500090E080749070009739F0A8E3B0E0E8E395
:10016000F0E0808180648C938A81882F90E0807297
:100170009070009739F0A8E3B0E0E8E3F0E0808108
:1001800080628C938A81882F90E0807190700097B4
:1001900039F0A8E3B0E0E8E3F0E0808180618C937F
:1001A0005CDFA8E3B0E0E8E3F0E080818F778C9338
:1001B000A8E3B0E0E8E3F0E080818F7B8C93A8E3D4
:1001C000B0E0E8E3F0E080818F7D8C93A8E3B0E0BD
:1001D000E8E3F0E080818F7E8C938A81882F90E025
:1001E00088709070009739F0A8E3B0E0E8E3F0E0A1
:1001F000808180688C938A81882F90E084709070D1
:10020000009739F0A8E3B0E0E8E3F0E08081806493
:100210008C938A81882F90E082709070009739F0DB
:10022000A8E3B0E0E8E3F0E0808180628C938A810B
:10023000882F90E081709070882339F0A8E3B0E0B7
:10024000E8E3F0E0808180618C9307DFA8E3B0E011
:10025000E8E3F0E0808180618C93A8E3B0E0E8E31C
:10026000F0E0808180628C93A8E3B0E0E8E3F0E006
:10027000808180648C93A8E3B0E0E8E3F0E08081C3
:1002800080688C930F900F900F90CF91DF9108951D
:10029000DF93CF9300D0CDB7DEB78A838A818823DE
:1002A00041F0A8E3B0E0E8E3F0E0808182608C9365
:1002B00007C0A8E3B0E0E8E3F0E080818D7F8C9395
:1002C000A8E3B0E0E8E3F0E0808184608C93A7E3EA
:1002D000B0E0E7E3F0E080818F7E8C93A7E3B0E0AD
:1002E000E7E3F0E080818F7D8C93A7E3B0E0E7E364
:1002F000F0E080818F7B8C93A7E3B0E0E7E3F0E050
:1003000080818F778C93A8E3B0E0E8E3F0E0808110
:1003100088608C9300C01982E6E3F0E08081882F2A
:1003200090E080719070009719F0898180618983D5
:10033000E6E3F0E08081882F90E080729070009773
:1003400019F0898180628983E6E3F0E08081882F5B
:1003500090E080749070009719F08981806489839F
:10036000E6E3F0E0808188231CF48981806889833A
:10037000A8E3B0E0E8E3F0E08081877F8C9300C0E1
:10038000A8E3B0E0E8E3F0E0808188608C9300C0EF
:10039000E6E3F0E08081882F90E080719070009714
:1003A00019F0898181608983E6E3F0E08081882FFC
:1003B00090E080729070009719F089818260898343
:1003C000E6E3F0E08081882F90E0807490700097E1
:1003D00019F0898184608983E6E3F0E080818823D5
:1003E0001CF4898188608983A8E3B0E0E8E3F0E049
:1003F0008081877F8C9389810F900F90CF91DF91BF
:100400000895DF93CF93CDB7DEB780E041DF882337
:10041000E4F384E190E005D080E03ADFCF91DF9112
:100420000895DF93CF9300D0CDB7DEB79A83898349
:1004300089819A81009711F400C006C089819A8150
:100440000197F1F79A8389830F900F90CF91DF91F5
:100450000895DF93CF930F92CDB7DEB78983D1DFB5
:10046000898160E010DE0F90CF91DF910895DF93D6
:10047000CF9300D0CDB7DEB789836A838A81882382
:1004800021F489818058E5DF03C089818054E1DF50
:100490000F900F90CF91DF910895DF93CF93CDB759
:1004A000DEB7AFDF882F90E0CF91DF910895DF9323
:1004B000CF93CDB7DEB781E0CCDFCF91DF91089548
:1004C000DF93CF93CDB7DEB782E0C3DFCF91DF916B
:1004D0000895DF93CF93CDB7DEB7CF91DF91089525
:1004E000DF93CF9300D0CDB7DEB78A838ADF8983CD
:1004F0008A818A3019F4898119D013C08A8161E018
:10050000C2DD7FDF89838981883021F480EC60E05F
:10051000BADD06C08981883419F480E860E0B3DD73
:1005200070DF0F900F90CF91DF910895DF93CF93FD
:1005300000D0CDB7DEB789838981803418F480E498
:100540008A8301C01A828A81805883DF0F900F90BE
:10055000CF91DF910895DF93CF9300D000D0CDB736
:10056000DEB79A83898302C08B81BADFE981FA8181
:1005700080818B838B818C838C81882311F081E037
:100580008C838C8129813A812F5F3F4F3A83298365
:10059000882351F70F900F900F900F90CF91DF911C
:1005A0000895DF93CF9300D000D000D0CDB7DEB751
:1005B0009D838C8302C08E8193DF8C819D819B8380
:1005C0008A838C819D8101969D838C83EA81FB8146
:1005D0008491898389818E838E81882361F7269611
:1005E0000FB6F894DEBF0FBECDBFCF91DF91089557
:1005F000DF93CF930F92CDB7DEB78983A7E3B0E047
:10060000E7E3F0E0808182608C93A7E3B0E0E7E36A
:10061000F0E0808184608C93A7E3B0E0E7E3F0E052
:10062000808188608C93A7E3B0E0E7E3F0E080810D
:1006300080618C93A7E3B0E0E7E3F0E08081806223
:100640008C93A7E3B0E0E7E3F0E0808180648C93D3
:10065000A7E3B0E0E7E3F0E0808180688C9380E07E
:100660009DE7DFDEA8E3B0E0E8E3F0E080818062B0
:100670008C93A8E3B0E0E8E3F0E0808180618C93A4
:10068000ECDC80E097E2CDDEE8DC80E890E0C9DEDB
:10069000E4DC80E890E0C5DEA8E3B0E0E8E3F0E069
:1006A00080818F7E8C93D9DC80E890E0BADE88E28E
:1006B000D0DE88E0CEDEFBDE86E0CBDE8981C9DEDF
:1006C0000F90CF91DF910895DF93CF93CDB7DEB731
:1006D00078948CE08DDFEBDE80E690E03CDF89E60D
:0A06E00090E039DFFFCFF894FFCF60
:1006EA0030313233343536370037363534333231F8
:0206FA003000CE
:00000001FF
